S315080200000CE000201D000208310002083100020837
S3150802001031000208310002083100020801F038BF37
S31508020020DFF808D001F0B0FF02F052B8F8FF00106E
S31508020030FEE76E2900F08084702900F0C8856629DB
S3150802004030F0DB81652930F0D881672930F0D58117
S315080200506129AFF3008003681B0A28BF41F08001BB
S31508020060692900F02F84642900F02C84752900F090
S3150802007029846F2900F05685782900F09485E929A4
S3150802008000F0F284E42900F0EF84F52900F0EC840C
S31508020090EF2900F05385F82900F093850368DB09F8
S315080200A028BF41F08001632901F0F181732901F02B
S315080200B0F681E32901F00182F32901F00682002084
S315080200C07047000040BA7047C0BA704700BEFEE7E4
S315080200D07047704753EA020C00F069802DE9F04B2D
S315080200E04FF00006002B1FBFB3FA83F503FA05F497
S315080200F024FA05F65E4012BF1643B2FA82F502FAF0
S3150802010005F4C5F120051EBF22FA05FC44EA0C04D3
S31508020110203556EA044C4FEA144418BF641C4FF0C3
S3150802012000084FF00009904271EB030C39D30029FD
S3150802013019BFB1FA81F701FA07F6B0FA80F700FAA1
S3150802014007F6C7F120071EBF20FA07FC46EA0C0687
S315080201502037B6FBF4FCA7EB0507103F07F01F0B89
S31508020160CBF120060CFA0BFB2CFA06F644BFB34673
S315080201700026202FA4BF5E464FF0000B5BEA060C52
S3150802018008BF4FF0010B19EB0B09ABFB027C48EBDE
S315080201900608C01B06FB02CC0BFB03CC71EB0C0159
S315080201A0C1E70B46024641464846BDE8F08B13B501
S315080201B04FF000004FF0000100F014FBBDE81C40B0
S315080201C07047B2F120030AD5C2F1200301FA02F1FF
S315080201D020FA03F300FA02F041EA0301704700FA33
S315080201E003F14FF000007047B2F120030AD5C2F1BD
S315080201F0200320FA02F001FA03F321FA02F140EA97
S315080202000300704721FA03F04FF000017047B2F17C
S3150802021020030AD5C2F1200320FA02F001FA03F3F9
S3150802022041FA02F140EA0300704741FA03F04FEA45
S31508020230E171704710B54C1084EA530404D5404264
S31508020240C1F1000138BF491E1B4204D55242C3F10F
S31508020250000338BF5B1EFFF73DFF14F0804F04D042
S315080202604042C1F1000138BF491E14F0004F04D0C4
S315080202705242C3F1000338BF5B1E10BD7CB51D4652
S3150802028016460C00009001D02044401E074B7B44C2
S315080202902A4669460190304600F067FB05461CB1BE
S315080202A00020694600F074FB28467CBD0907000059
S315080202B00A460146014800F0A6BD00003077001044
S315080202C02DE9F047984614460F468246DDF82090F7
S315080202D094B1012C0BD04A465046650805FB0876B0
S315080202E03146904700280CD00DDA2C46F0E74A46EC
S315080202F039465046904710B10020BDE8F087384687
S31508020300FBE73046F9E7641B641E06EB0807DFE7DE
S31508020310401ECAB210F8011F8A4202D00029F9D13A
S315080203200020704740EA010310B59B070FD1042A43
S315080203300DD310C808C9121F9C42F8D020BA19BAA0
S31508020340884201D9012010BD4FF0FF3010BD1AB105
S31508020350D30703D0521C07E0002010BD10F8013B5A
S3150802036011F8014B1B1B07D110F8013B11F8014B81
S315080203701B1B01D1921EF1D1184610BD40EA01039A
S31508020380024630B59B0710D14FF0013400E008C28F
S3150802039008C91D1B9D4315EAC41FF8D013F0FF01B7
S315080203A002F8011B0DD01B0AF8E711F8013B002BD6
S315080203B002F8013B05D011F8013B002B02F8013B7C
S315080203C0F3D130BD40EA010370B59B072ED14FF039
S315080203D00136042A2AD308C810C99D1B9D43121F39
S315080203E015EAC61517D0D8B2E1B2401A50EA056125
S315080203F010D198B2A1B2401A50EA05410AD123F0A7
S315080204007F4024F07F41401A50EA052102D1180E96
S31508020410A0EB146070BDA342DBD018BA21BA884299
S3150802042001D9012070BD4FF0FF3070BD0AB9002016
S3150802043070BD10F8013B11F8014B63B1A3420AD112
S31508020440521E08D010F8013B11F8014B1BB1A3420A
S3150802045001D1521EEDD1181B70BD032A40F230801D
S3150802046010F0030C00F0158011F8013BBCF1020FE5
S31508020470624498BF11F801CB00F8013B38BF11F866
S31508020480013BA2F1040298BF00F801CB38BF00F87D
S31508020490013B11F0030300F06780083AC0F00880B8
S315080204A051F8043B083A51F804CBA0E80810F5E7DE
S315080204B0121D5CBF51F8043B40F8043BAFF30080C1
S315080204C0D20724BF11F8013B11F801CB48BF11F836
S315080204D0012B24BF00F8013B00F801CB48BF00F806
S315080204E0012B7047431A28BF9A427FF6B6AF032AF2
S315080204F01044114440F2268010F0030F1EBF11F873
S31508020500013D521E00F8013D10F0030F7FF4F6AFCD
S3150802051011F0030300F06D80083AC0F00B8051F821
S31508020520043D083A51F804CD40F8043D40F804CD9C
S31508020530FFF7F3BF121D5CBF51F8043D40F8043DB6
S31508020540AFF30080D20724BF11F8013D11F801CD9F
S3150802055048BF11F8012C24BF00F8013D00F801CD6F
S3150802056048BF00F8012C704710B5203AC0F00B803E
S31508020570B1E81850203AA0E81850B1E81850A0E897
S315080205801850BFF4F5AF5FEA027C24BFB1E81850F1
S31508020590A0E8185044BF18C918C0BDE810405FEA61
S315080205A0827C24BF51F8043B40F8043B08BF7047DD
S315080205B0D20728BF31F8023B48BF11F8012B28BFE2
S315080205C020F8023B48BF00F8012B7047431A28BFA0
S315080205D09A427FF6C9AF104410F0030F11441EBFAA
S315080205E011F8013D521E00F8013D10F0030F7FF489
S315080205F0F6AF103AC0F00A8010B531E91850103A31
S3150802060020E91850BFF4F9AFBDE81040530724BFDC
S3150802061031E9081020E9081044BF51F8043D40F8B2
S31508020620043D12F0030F08BF7047D20728BF31F8FE
S31508020630023D48BF11F8012C28BF20F8023D48BFE9
S3150802064000F8012C704702F0FF0343EA032242EA4C
S31508020650024200F002B84FF000020429C0F01280EC
S3150802066010F0030C00F01B80CCF1040CBCF1020F55
S3150802067018BF00F8012BA8BF20F8022BA1EB0C012A
S3150802068000F00DB85FEAC17C24BF00F8012B00F820
S31508020690012B48BF00F8012B70474FF0000200B546
S315080206A0134694469646203922BFA0E80C50A0E885
S315080206B00C50B1F12001BFF4F7AF090728BFA0E833
S315080206C00C5048BF0CC05DF804EB890028BF40F8FF
S315080206D0042B08BF704748BF20F8022B11F0804F41
S315080206E018BF00F8012B704710B5044610F0030F27
S315080206F008BF11F0030F40F015804FF0013E121F9C
S31508020700C0F20E8051F8043BA3EB0E0C2CEA030C44
S315080207101CEACE1C08BF40F8043BF0D0A1F1040144
S3150802072002F10402521E08DB11F8013B002B00F805
S31508020730013BF7D11146FFF78EFF204610BD000098
S315080207404FF0013C50F8042B51F8043B9A4221D150
S31508020750A2EB0C03934313EACC1317D150F8042BDC
S3150802076051F8043B9A4215D1A2EB0C03934313EAC0
S31508020770CC130BD150F8042B51F8043B9A4209D1F9
S31508020780A2EB0C03934313EACC13DBD04FF0000021
S31508020790704700BFD01A01BAB1FA81F101F0180107
S315080207A022FA01F0CB40C1F12001DBB2C0B2C01A75
S315080207B02CFA01F3D11A914311EAC311E6D1704713
S315080207C070B5064C7C44064D7D4403E020682044FF
S315080207D08047241DAC42F9D170BD00008890030001
S315080207E08C9003002CF00EB810B500F099FB006847
S315080207F010BD10B5044600F093FB046010BD70B539
S31508020800044685690068C10601D5302600E020261F
S31508020810C00707D070BDD4E9012130469047206A47
S31508020820401C20626D1EF6D570BD70B504468569FA
S315080208300078C00707D170BDD4E90121202090476E
S31508020840206A401C20626D1EF6D570BD09684A05ED
S3150802085001D540B27047C905FCD500B27047096890
S315080208604A0501D5C0B27047C905FCD580B27047A2
S3150802087070B50C460546012A05D02878800600D5AB
S31508020880EA69002302E0012305E05B1C934202D2D7
S31508020890E05C0028F9D1A869E618C01AA861286A96
S315080208A0184428622846FFF7AAFF04E0D5E9012181
S315080208B014F8010B9047B442F8D32846FFF7B5FF60
S315080208C070BD00002DE9F04106460024106875291E
S315080208D0314615A510D0FFF7B9FF002802DA4042C3
S315080208E012A507E031688A0701D511A502E0490772
S315080208F004D510A5012401E0FFF7B1FF00210A2360
S3150802090006F1240707E0B0FBF3F203FB12003030CE
S3150802091078541046491C0028F5D123462A46304603
S31508020920BDE8F04100F045BB000000002D000000C4
S315080209302B0000002000000011680268006A5305B7
S3150802094001D508700AE0D30501D5088006E013062A
S3150802095003D5C217C1E9000200E00860012070470A
S3150802096001694A1C02610878704700B58FB0CDE963
S3150802097001310021059105497944CDE90310114653
S31508020980684600F02FF90FB000BD0000E5FFFFFF33
S315080209900A6802F8010B0A607047D1E900239A42F5
S315080209A002D2531C0B601070704700002DE9FF5FDE
S315080209B015468A460446DFF8AC80F8440027D8E98B
S315080209C000103E46CDE9001010E03AF816106A46C5
S315080209D002A800F07EFD411C07D02178890603D5BE
S315080209E0E269391891420DD80744761C20788006A8
S315080209F002D5E069B84205DDAE42E6DB3AF81600F2
S31508020A000028E2D1A069C01BA0612046FFF7F7FEC5
S31508020A10D8E90010CDE90010002017E03AF81810BE
S31508020A206A4602A800F055FDB0F1FF3F81460BD099
S31508020A3000250DF1080B05E0D4E901211BF8050094
S31508020A4090476D1C4D45F7D308F10100B042804628
S31508020A50E4DB206A384420622046FFF7E6FEBDE85A
S31508020A60FF9F0000326D03002DE9F0418046D21D3A
S31508020A7022F007020025D2E90002F52914A612D0AF
S31508020A80002A06DA0023D0EB030063EB020211A662
S31508020A9008E0D8F800108B0701D50FA602E049072F
S31508020AA001D50EA601251146002408F1240704E003
S31508020AB000F03AFA30323A55641C50EA0102F7D18C
S31508020AC02B46324621464046BDE8F04100F071BA4F
S31508020AD0000000002D0000002B000000200000008E
S31508020AE030B4002100F1240408E002F00705D20818
S31508020AF0303542EA4372DB086554491C52EA03055B
S31508020B00F3D10468002310A2250708D504F02004AF
S31508020B100C4304D0C46901230CA2641EC46130BC10
S31508020B2000F047BA10B5044621461068FFF797FE4B
S31508020B3002462046BDE810400023D1E7D21D22F026
S31508020B400701D1E90023CBE70000000030000000CE
S31508020B50F0B40D460188090502D5214C7C4402E011
S31508020B601F4C7C440E34002100F1240608E002F0F2
S31508020B700F071209E75D42EA03721B097754491CFB
S31508020B8052EA0307F3D102780023120704D5702D1F
S31508020B9006D009B1022311342246F0BC00F009BA84
S31508020BA001231034F8E770B504460D46214610684D
S31508020BB0FFF755FE024629462046BDE87040002347
S31508020BC0C6E7D21D22F00703D3E90023C0E703686C
S31508020BD0126843F0200303600823C3610023B7E7C2
S31508020BE0986B03002DE9F05F894604464FF0000A28
S31508020BF0DFF874B1FB44C0F820A02046E1688847B4
S31508020C00002874D0252806D0D4E901219047206A05
S31508020C10401C2062F1E700265F462046E1688847C5
S31508020C202028054607DB312D05D2781910F8200C45
S31508020C3008B10643F1E7B00701D526F00406C4F861
S31508020C401CA00027C4F818A02A2D09D028462BF084
S31508020C5002FE38B304EB8708303DC8F8185019E08D
S31508020C6059F8041B204604EB87029161E16888471C
S31508020C70012F054618D1E069002820DA26F0200659
S31508020C801DE0D8F8180000EB800005EB400030386C
S31508020C90C8F818002046E168884705462BF0DBFDB0
S31508020CA00028EED1012F0AD02E2D08D12046E16860
S31508020CB088477F1C0546022F46F02006C4DBA0693A
S31508020CC0002803DA404246F00106A061F00701D087
S31508020CD026F010066C2D0BD0682D09D04C2D39D074
S31508020CE06A2D35D0742D35D07A2D33D016E038E0FA
S31508020CF0E1682F4620468847B842054609D16C2F37
S31508020D0026D04FF48060E1680643204688470546A8
S31508020D1004E06C2F1AD04FF4807006430DB3A5F188
S31508020D204100192802D8203546F400664A46294663
S31508020D30204626604E46FFF77CF980B101280BD083
S31508020D40F61D26F0070000F1080956E74020E4E7F9
S31508020D508020D8E70020D6E706F104094DE72846A1
S31508020D6052E7206ABDE8F09F286B030070B5064675
S31508020D70484231EA00000FD02A20741C0025307040
S31508020D8000F0CAF80346002253F82500010F0001B5
S31508020D9009292BD957312AE0042913D004DC012961
S31508020DA008D0022904D109E008290FD0102911D048
S31508020DB0002070BD00F0B0F800680EE000F0ACF854
S31508020DC040680AE000F0A8F8806806E000F0A4F897
S31508020DD0C06802E000F0A0F8006928B120F003001C
S31508020DE050F8041C084470BD49A070BD3031521C2D
S31508020DF0082A04F8011BC9DB6D1C052DC3DB00207C
S31508020E002070304670BD2DE9F047E1B14B091AD181
S31508020E1032B113782A2B06D0BDE8F04700F02AB87B
S31508020E20BDE8F047A2E753786BB1551C81460F46D9
S31508020E304FF0010800240026314615F8010B39281F
S31508020E4004D8303803E00020BDE8F0875738491C3B
S31508020E50082940EA0616F0DB08FA04F0384203D0FD
S31508020E6000F05AF840F82460641C052CE3DB394686
S31508020E704846D5E72DE9F0410C4606461546880749
S31508020E800AD51146234878442DF08CFE07003CD03B
S31508020E9000F042F87F1C4760E0070AD029461D4841
S31508020EA078441A38AFF3008007002ED000F034F8E1
S31508020EB0076060070AD52946164878443438AFF3DE
S31508020EC00080070021D000F027F8876020070AD59E
S31508020ED02946104878444E382DF04EFE070014D0A5
S31508020EE000F01AF8C760E0060AD529460948784488
S31508020EF06838AFF30080050007D000F00DF80561E9
S31508020F0021463046BDE8F04130E7BDE8F0810000F1
S31508020F104300000096880300004870475C7700107B
S31508020F20004870477077001030B5B0F10A024FEAF0
S31508020F30900E71F100034EEA817EB0EB0E0061EB72
S31508020F4091014FEA101E4EEA017E10EB0E0041EBAC
S31508020F5011114FEA102E4EEA016E10EB0E0041EB0C
S31508020F6011214FEA104E4EEA014E10EB0E0041EBEC
S31508020F701141401841F100014FEAD00040EA4170A0
S31508020F804FEAD10110EB80054FEA810444EA9074D6
S31508020F9044EB01046D1944EB0404521BA3414FF0C0
S31508020FA0000348BF0A3200D530BD401C41F100019A
S31508020FB030BD2DE9F0470D4699469246044600F1A2
S31508020FC024080168880604D5E06921F01001216029
S31508020FD000E00120A84201DD471B00E00027A169C5
S31508020FE07A1902EB0900081AA0612078C00602D411
S31508020FF02046FFF704FC002608E0D4E901211AF886
S3150802100006009047206A401C761C20624E45F4DB97
S315080210102078C0060AD52046FFF7F1FB06E0D4E998
S31508021020012130209047206A401C2062381EA7F111
S315080210300107F4DC07E0D4E9012118F80500904716
S31508021040206A401C2062281EA5F10105F3DC204611
S31508021050FFF7EBFB2078000602D50220BDE8F087F1
S315080210600120FBE770472DE9FF4F0C461E464FF05D
S31508021070FF378BB0D2E90001DDF860800A908A4614
S31508021080C1F30A5505B93D46002108464FF000004E
S31508021090BAF1000F00F4400005DA00EB80004FF4C5
S315080210A0400101EA50004FEA9059B9F1010F00DDFB
S315080210B0B9460A9850EA4A000ED044F61050A5F2EC
S315080210C0FF3545432F14B8F1000F1ED07542291E6D
S315080210D01EDDC9F100021CE0B8F1010F4FF0000055
S315080210E001D0302103E0F24305E02154401CB0420E
S315080210F0FBDB30460022002121540B99C1F80880F7
S31508021100C1E900200FB0BDE8F08FBD1B6D1CDEE7FC
S315080211104A4600DA694206A800F044FA06AB93E8A2
S31508021120070003AB83E8070050460A9900F0A6FABF
S315080211308DE80700A0F500501F3800900398002D8F
S3150802114009DD42F21F014A46084403A9039068468C
S3150802115000F005FD08E0A0F500504A461F3803A92D
S315080211600390684600F00FFD8DE807000004000CA6
S3150802117003D04FF0FF30410800E01046B8F1000FE7
S3150802118003D00022009215461EE0751E05D4FFF70D
S31508021190CBFE303262556D1EF9D5B346012208439D
S315080211A002D000227F1C04E02078302801D10022D8
S315080211B07F1E002A099786D01DE0112D07DAFFF750
S315080211C0B3FE303262556D1C50EA0102F5D108436E
S315080211D002D00098C8B10EE00021681E05E0235C23
S315080211E0625C63542254401E491C8142F7DBAB46BB
S315080211F0A81B401E0990002004F80B000B98099AB8
S31508021200C0F80880C0E9002B7CE711264FF00008D9
S3150802121059E72DE9F04F88460446D21D22F0070108
S3150802122091B0D1E90001CDE90A012AF0B8FC0246DB
S315080212300B98C00F01D02D2007E02068810701D541
S315080212402B2002E0202101EAC000032A099001D0DE
S31508021250072A05DB03464146204600F063F909E101
S315080212602078800601D5E06900E00620B8F1650F0E
S31508021270814606D0B8F1660F18D0B8F1670F70D15B
S3150802128031E00020B9F1110F009001DB112301E0D2
S3150802129009F101030AAA01A90CA8FFF7E4FEDDE990
S315080212A00C70002609F10105834647E001204B46EA
S315080212B000904FF000470AAA01A90CA8FFF7D3FE2F
S315080212C0DDE90DB00C995D46002610B909F1010059
S315080212D00D18B9EB050003D4C0F1FF3609F1010573
S315080212E0A5EB09002BE0B9F1010F01DA4FF001096C
S315080212F00020B9F1110F0090484601DD112300E0E4
S3150802130003460AAA01A90CA8FFF7ADFEDDE90C708F
S315080213104D4600268346207800070AD4AB4500DAF4
S315080213205D4601A8012D04DD411911F8011C302979
S3150802133007D04F4502DA17F1040F04DA0120824674
S315080213400FE06D1EEEE7002F02DCED1B3E4403E0C4
S31508021350781CA84200DD7D1CB81B00F1010A4FF07B
S3150802136000472078000703D4AA4501DB4FF0FF3A6D
S315080213700021B7F1004F0DF143088DF8431022D032
S3150802138002202B23002F01DA7F422D234FF00A0C6D
S31508021390011EA0F1010000DC47B197FBFCF10CFB32
S315080213A011720F46303208F8012DF1E7A8F1010053
S315080213B003702188090501D5452100E06521A0F1C0
S315080213C0010800F8011C09980FA9A1EB0807FF1DDF
S315080213D000B10120411901EBEA70A1693844081AE3
S315080213E0401EA0612078C00602D42046FFF707FAFD
S315080213F0099828B1D4E901219047206A401C206245
S315080214002078C00622D52046FFF7F9F91EE0002EFD
S3150802141004DBB34502DD01A8805D00E03020D4E993
S3150802142001219047206A401C2062761CAAF101001D
S315080214305FEA000A0AD1FFF76FFDC0680168405CDF
S31508021440D4E901219047206A401C2062281EA5F192
S315080214500105DCDC07E0D4E9012118F8010B904705
S31508021460206A401C2062381EA7F10107F3DC2046D9
S31508021470FFF7DBF9022011B045E610B5436913B14F
S31508021480AFF3008001E0FFF7F3F9012010BD1278EF
S3150802149000F124010A7000224A700122EDE7116860
S315080214A04FF0FF32E9E710B5436913B1AFF3008095
S315080214B001E0FFF77BFA012010BD128800F1240132
S315080214C082840022C2840122EDE711684FF0FF32BE
S315080214D0E9E770B516460C46054600F01BF80368A0
S315080214E093F80101012806D0FF2C0FD8185D68B1C0
S315080214F001202C7070BDD3F80701324621460344F9
S315080215002846BDE8704003F2071318474FF0FF302C
S3150802151070BD000010B5FFF7FFFC001D10BD00BF2F
S3150802152085D602002DE9F0411F46044603260168C6
S31508021530072A01F4006004DB08B116A505E016A522
S3150802154003E008B115A500E015A521F010002060FA
S31508021550A069C01EA0610FB1401EA0612046FFF718
S315080215604EF94FB1D4E9012138469047206A401C0A
S315080215702062C01C206206E0206AFAE7D4E901214B
S3150802158015F8010B9047761EF8D22046FFF74DF95B
S31508021590BDE8F0814E414E006E616E00494E46002E
S315080215A0696E66002DE9F047814616468AB03248CA
S315080215B078440DC88DE80D002F487844801C03AC8A
S315080215C00DC884E80D0041F69B303722014491FB91
S315080215D0F2F0A0F1800502FB10141B3C02D564420E
S315080215E0012000E00020DFF890A080460027FA4498
S315080215F0AAF1BA0A0DE0E00709D03246684607EBB7
S3150802160047010AEB810100F0BEFA8DE80700641073
S315080216107F1C002CEFD1184F7F44A83F18E0E8073B
S3150802162014D007EB04100DF1180A90E80E008AE8A8
S315080216300E00C068F04201D198190890324606A9F0
S3150802164003A800F0A0FA03AB83E807006D10641C38
S31508021650002DE4D132466946B8F1000F03A802D03C
S3150802166000F07DFA01E000F08EFAC9E90001C9F836
S3150802167008200AB0BDE8F087B06303005FEA400CB1
S3150802168008BF91F0000F4FEA8C234FEAC12243EAC2
S3150802169051514FEA1C5018BF00F5F0404FEA30008E
S315080216A018BF41F000415FEA6C5C00F02980BCF18A
S315080216B0FF3F08BF40F080407047130C06BF120474
S315080216C04FF0100C4FF0000C130E04BF12020CF16F
S315080216D0080C130F04BF12010CF1040C930F04BF7C
S315080216E092000CF1020CD30F04BF52000CF1010C4C
S315080216F011464FF00002A0F11F00A0EB0C00704744
S3150802170011F0004F08BF704731F000413FF4D5AFE2
S315080217100B0C06BF09044FF0100C4FF0000C0B0E11
S3150802172004BF09020CF1080C0B0F04BF09010CF1E6
S31508021730040C8B0F04BF89000CF1020CCB0F04BFFB
S3150802174049000CF1010CCCF12003A0EB0C0022FAA3
S3150802175003F302FA0CF241EA030100F101007047B1
S3150802176020F07F4C80EA030023F07F47ACEB0703A7
S3150802177003F57C5300F0004003F1FF032DE980498D
S315080217804FEA154B09B44FEA144325EA0B4E24EAED
S3150802179003480FF2042606EB132749083E785FEA48
S315080217A0320203FB0667C7F5000707FB06F64FEA90
S315080217B054374FEAD64606F1020607FB066CCCF109
S315080217C0005C4FEA1C472CEA074C07FB06F40CFBA5
S315080217D006F504EB15464FEA961634BF00204FF07D
S315080217E000404FEAD13706FB07FC4FEA1C4C0CFBBC
S315080217F00BF7D21B03FB0CF761EB07010CFB0EF789
S31508021800B0EB074072EB17420CFB08F734BFA2EBAA
S315080218100742B2EB074261EB17414FEA0C444FEA23
S31508021820910706FB07FC4FEA1C4C0CFB0BF7B0EBC7
S31508021830C74072EB573203FB0CF734BFA2EBC74221
S31508021840B2EBC74261EB57310CFB0EF7B0EBC700A0
S3150802185072EB57720CFB08F734BFA2EBC702B2EB66
S31508021860C70261EB5771039F4FEA816141EA921100
S3150802187004EBCC044FEAD1374FEA826206FB07FC37
S3150802188042EA90124FEA80604FEA1C4C0CFB0BF7B7
S31508021890D21B03FB0CF761EB07010CFB0EF7B0EB4F
S315080218A0074072EB17420CFB08F734BFA2EB07425C
S315080218B0B2EB074261EB17414FEA8C554FEA9107A3
S315080218C004EB9C2406FB07FC4FEA1C4C0CFB0BF7AB
S315080218D0B0EBC74072EB573203FB0CF734BFA2EBEF
S315080218E0C742B2EBC74261EB57310CFB0EF7B0EBBE
S315080218F0C70072EB57720CFB08F734BFA2EBC7029C
S31508021900B2EBC70261EB577115EB4C254FEA8161C1
S3150802191041EA92114FEA82624FEAD13742EA9012BD
S3150802192006FB07FC44F100044FEA80604FEA1C4CB0
S315080219300CFB0BF7D21B03FB0CF761EB07010CFB45
S315080219400EF7B0EB074072EB17420CFB08F734BFF1
S31508021950A2EB0742B2EB074261EB174115EB1C15E6
S315080219604FEA813141EA92414FEA823242EA904293
S315080219704FEA80304FEA0C7644F1000448EA034302
S315080219804EEA0B484FF0000EB2EB080C71EB030758
S3150802199024BF624639464EEB0E0E4FF0000B001876
S315080219A0524149414BEB0B0BB2EB080C71EB0307A7
S315080219B07BF1000B24BF624639464EEB0E0E4FF002
S315080219C0000B0018524149414BEB0B0BB2EB080CCA
S315080219D071EB03077BF1000B24BF624639464EEBD7
S315080219E00E0E51EA020718BF46F0010616EB0E76EE
S315080219F055F1000254F1000103D5BDE88901BDE89D
S31508021A000088BDE88901B619BDE80048524141EB94
S31508021A100101A3F10103704780807F7E7D7C7B7A7A
S31508021A207978777676757473727171706F6E6E6D7A
S31508021A306C6C6B6A6A696868676666656464636320
S31508021A4062616160605F5F5E5E5D5D5C5C5B5B5AA6
S31508021A505A59595858575756565555555454535313
S31508021A6052525251515050504F4F4F4E4E4D4D4D6E
S31508021A704C4C4C4B4B4B4A4A4A49494948484847B9
S31508021A8047474746464645454544444444434343F7
S31508021A904342424242414141002B26D4770021D09B
S31508021AA01CB54FEA370703B44FF010004FF0100188
S31508021AB04FF000000FBC0BF1010BBDE81040BBF163
S31508021AC0010F08BF5FEA170722BF12F1010211F1DF
S31508021AD001014FF0004143F1000300F0004043EAE0
S31508021AE000007047F9D35708DAE746EA064613F1C3
S31508021AF0400F4FEA16461FDD13F1200FDFBF1643CC
S31508021B000A46002120335B42C8D0C3F1200746EAC1
S31508021B10064602FA07F74FEA164646EA0706C3F1E9
S31508021B20200722FA03F201FA07F721FA03F14FF026
S31508021B30000342EA0702B1E746EA020646EA064611
S31508021B404FEA164646EA0106BCBF46EA0646360C80
S31508021B504FF000034FF000024FF000019EE72DE917
S31508021B60C048934630B491E8380007C831EA400CB9
S31508021B7048BF34EA430C03D5FFF7F2FDFFF78CFFA3
S31508021B80F0BCBDE800882DE9C048934630B491E818
S31508021B90380007C810F0804F08BF13F0804F03D1F2
S31508021BA000F005F8FFF778FFF0BCBDE8008820F0E2
S31508021BB07F4780EA030023F07F4C07EB0C03A3F56B
S31508021BC07C5300F00040A3F1FE0392F0000F00F0F0
S31508021BD0B38095F0000F00F077802DE901494FEAAE
S31508021BE011404FEA144621EA004800FB06FC24EAA3
S31508021BF0064708FB06F607FB08F800FB07F718EB8B
S31508021C0006484CEB164C4FEA124B18EB07484FEABC
S31508021C1015464CEB174022EA0B4E0BFB06FC25EA4F
S31508021C2006470EFB06F607FB0EFE0BFB07F71EEB37
S31508021C30064E4CEB164C4FF000061EEB074E4CEBCD
S31508021C40174B18EB0B0840F1000018EB0E0B58EB7C
S31508021C50000840F100008F1A4FF000013CBFC9434B
S31508021C60661B14BFB5EB040C00213CBFC943F61B27
S31508021C704FEA17444EEA8E0E27EA04454FEA1C47F6
S31508021C8004FB07622CEA074C05FB07F70CFB05F673
S31508021C9004FB0CFC16EB074642EB174216EB0C4606
S31508021CA042EB1C421BEB060658EB0202414146EA8E
S31508021CB09E0601D5BDE80189B619524141EB0101DB
S31508021CC0A3F10103BDE801894FEA14454FEA11471A
S31508021CD024EA054621EA074C05FB07F406FB07F743
S31508021CE00CFB06F105FB0CFC11EB074144EB174410
S31508021CF04FEA124711EB0C4144EB1C4422EA074C0B
S31508021D0005FB07F206FB07F70CFB06F605FB0CFCC0
S31508021D1016EB074642EB174216EB0C4642EB1C45FE
S31508021D206A1854F1000148BF7047B619524141EB8F
S31508021D300101A3F10103704795F0000F37D04FEA6E
S31508021D4011424FEA144721EA024624EA074C02FBEB
S31508021D5007F106FB07F70CFB06F402FB0CFC14EB77
S31508021D60074441EB17414FEA154714EB0C4441EB84
S31508021D701C4125EA074C02FB07F506FB07F70CFB95
S31508021D8006F602FB0CFC16EB074645EB174516EB67
S31508021D900C4645EB1C42121951F1000148BF704727
S31508021DA0B619524141EB0101A3F1010370474FEA0B
S31508021DB014454FEA114724EA054621EA074C05FB72
S31508021DC007F106FB07F70CFB06F24FF0000605FBC8
S31508021DD00CFC12EB074241EB174112EB0C4251EB9A
S31508021DE01C4148BF7047921841EB0101A3F1010358
S31508021DF070470000814208BF704702F0030332F0C1
S31508021E00030205D050F804CB41F804CB121FF9D1CE
S31508021E10002BD8BF704710F8012B5B1E01F8012B67
S31508021E20002BF8DC704701F0030231F003014FF092
S31508021E30000303D040F8043B091FFBD1002AD8BF90
S31508021E40704700F8013B521E002AFADC704710B5AB
S31508021E5007480849084AFFF7CDFF08480849094ACA
S31508021E60FFF7C8FFBDE8104007480849DBE700004E
S31508021E70847F08080000002000000000E0800808AF
S31508021E80000000105C0B00005C0B0010CC6E00001A
S31508021E90FEF7C6B882B0002240490092019208684D
S31508021EA040F480300860086800F400300190009819
S31508021EB0401C0090019818B90098B0F5A06FF2D1AD
S31508021EC0086810F4003F02BF019202B07047012071
S31508021ED001903348026842F0805202603148026833
S31508021EE042F480420260304802680260026842F4A4
S31508021EF000420260026842F4A0520260031F2B4AA3
S31508021F001A600A6842F080720A600A6812F0007F54
S31508021F10FBD0274940F205620A60016821F00301F5
S31508021F200160016841F002010160016801F00C01DB
S31508021F300829FAD102B0704772B601211D484160DC
S31508021F40082181601C48016821F4027101601B485E
S31508021F50016841F4FE6101601048016841F001011F
S31508021F600160114A00211160026822F4102222F04F
S31508021F7080720260031D124A1A60026822F48022E5
S31508021F8002601048016085E710B5FFF7D5FF02F039
S31508021F9037F9BDE81040FFF75ABF00000038024083
S31508021FA04038024000700040083802401954400781
S31508021FB0003C0240002004E014ED00E0FCED00E0E5
S31508021FC0103000240C380240EFF3108272B6026019
S31508021FD07047016881F310887047EFF3058100683E
S31508021FE009B14FF001007047016881F31088704704
S31508021FF072B670470168EFF3108281F3108800BF4A
S3150802200082F310887047EFF31080EFF3058180F0B2
S31508022010010009B14FF000007047EFF3108072B665
S3150802202080F001007047EFF3108062B680F001007D
S315080220307047EFF3108172B601607047016881F349
S3150802204010887047704770471B49088810F0010FBF
S315080220501A4809D04FF6FE720A80D0E902120B1C02
S3150802206042F10101C0E9023115490968D0E9023C89
S3150802207041EA03006146704730B583B00446002141
S315080220806846FFF7A1FFFFF7DFFF05462046FFF781
S31508022090DAFF032894BF0024C41EFFF7D5FF401BAE
S315080220A0A042FAD96846FFF794FF03B030BDA821CB
S315080220B04843401F00F01EB9100C004028000010CB
S315080220C0240C0040806840687047806880687047C2
S315080220D010B584B033496FF003006844884228BFBC
S315080220E0314A03D340F804298842FBD2304C2F48A0
S315080220F060603048A06000F049FD2F482F49084427
S31508022100A1680844A06003F075FD206000F0E7FFAF
S3150802211002F01EFF01F084F800200090012303223A
S31508022120042127A000F04EFC2BA32EA2304931A091
S3150802213000F048FC364937A000F044FC01A902A881
S3150802214000F018FDDDE90110FEF785FA38A02BF03C
S315080221509CFB274937A02BF098FB38A135A02BF01A
S3150802216094FB20A138A02BF090FB1BA136A02BF0E4
S315080221708CFB01214EF6602004F0BDFC01210220F1
S3150802218004F06CFE0121084604F0B3FC03F042FC9D
S3150802219030A02BF07AFB38A02BF020F906F0C2FC0F
S315080221A004B010BD00E000100DF0ADBA0000020840
S315080221B000000010847F0600000000005C0B00008F
S315080221C02E4E65744D46207625642E25642E25648A
S315080221D02E25640D0A00000031303A31373A32347E
S315080221E0000000004A756E20323320323031370043
S315080221F0EE04050825732C204275696C6420446137
S3150802220074653A0D0A0925732025730D0A00000024
S31508022210B1E74C0041524D20436F6D70696C65728F
S315080222202076657273696F6E2025640D0A000000B8
S315080222300C000000252D3135730D0A004275696CB4
S315080222406420446174653A002020252D3133730DCC
S315080222500A0000000C6D61696E2065786974656410
S3150802226021213F3F3F2E202048616C74696E67200A
S315080222704350550D0A0000006D61696E2065786944
S3150802228074656421213F3F3F2E202048616C7469A2
S315080222906E67204350550D0A0000000010B503F082
S315080222A001FABDE8104006F03DBC000004B02DE975
S315080222B0FF0F6846EFF30581FFF7F0BF81B000B55F
S315080222C02DE9FF5F6846EFF30381C163AFF3008030
S315080222D010B582B0044600216846FFF775FE002154
S315080222E0204603F0DFF906F01DFC6846FFF771FE8B
S315080222F002B010BD001FFDDCF7460000034951F885
S315080223002020521E41F82020704700009C0B001026
S31508022310034951F820000028CCBF0120002070474D
S315080223209C0B0010034951F82020521C41F820202A
S31508022330704700009C0B001030B40024002A17DDF9
S3150802234011F804C00823400040EADC10C0B210F0BD
S31508022350800F18BF80F009004FEA4C6C5B1E4FEAEB
S315080223601C6C002BEFDC641C00F07F00A242E7DC49
S3150802237007214006000E10F0800F18BF80F00900F2
S31508022380491E0029F5DC30BC00F07F0070470000CA
S315080223902DE9F04F8046F948F94999B0081AC01C48
S315080223A018901FFA88F04FEA186B4FF0000A179038
S315080223B04FF000090EF036FF012303220421F1A093
S315080223C0CDF800A029F0BCF809F042FDF6A029F0E4
S315080223D0B7F8F94CC4F8008018F002FC0028C0F2DD
S315080223E08381F64829F0ACF8C8F3074020B1F448CF
S315080223F0016841F000410160F14818F0EBFB002842
S31508022400C0F27281EF4829F09BF810F075FD0120A1
S315080224102071ED4829F094F81898D84920F0030756
S31508022420D74D0C4601AA684610F06CF900281CBF65
S315080224300098002808D0C2688068816810468847D4
S31508022440007810F0020F0FD00020002873DB2A460E
S315080224502146DE4829F074F8291B0022204602F09C
S31508022460EDF9DB4908605CE00C21384609F0E4FC2A
S31508022470060008BF4FF07A40E7D0DDE900C10346FF
S31508022480DCF80C00DCF808C03A46DCF80CC0E04779
S3150802249000280EBF4FF077403446F519D5D0D3E75A
S315080224A0694620460FF040F8002833DB0098806919
S315080224B003F034FC060028D000987268416949691D
S315080224C0914204BFB168C1611FD0C24829F038F8E9
S315080224D0C14829F035F8C14829F032F8BE4829F032
S315080224E02FF8BD4829F02CF80098736841694A69A3
S315080224F08169BB4829F024F8B74829F021F8B5487C
S3150802250029F01EF84FF0164004E0B648009916F076
S31508022510DFF9002000280EDB606E2044C01C20F084
S31508022520030404F17C00A84204D2204629F060FA8A
S315080225300028B5D100200028C0F2D280AA4828F087
S31508022540FFFF50210AA816F09FFA18B9A74828F0E3
S31508022550F7FFA1E01398C268806881681046884729
S315080225600AAC7C2694E80E108DE80E100EAC94E8A0
S315080225700E1004AC84E80E10DDE91212CDE9081239
S315080225800078CDF850A0C0F340044CB9012130467A
S3150802259009F076FC1490002878D03146FEF75BF8ED
S315080225A07742324614A9684616F0D1FB002869D04C
S315080225B0149D284629F0E4F9002863D0686EC01CE9
S315080225C020F0030534B90C21284609F035FC16908B
S315080225D0002858D001223946684616F00FFC2A46CA
S315080225E016A9684616F0B3FBD8B3169D284629F0F5
S315080225F0FFF9B8B37E4828F0A3FF15A928460EF0BE
S3150802260093FF00282BDB1598806903F087FB0500EA
S315080226102ED015986A6841694969914204BFA9682A
S31508022620C16125D06B4828F08BFF6B4828F088FFDC
S315080226306A4828F085FF684828F082FF664828F02D
S315080226407FFF15986B6841694A698169644828F071
S3150802265077FF614828F074FF5E4828F071FF1CB1C5
S3150802266014E00FE0FFE78CB9169809F0F7FB0AE0C9
S315080226705C48159916F02CF91598016941F008017C
S3150802268001618EE714B9149809F0E8FB0AA816F056
S315080226902FFA00287FF45EAF564828F051FF5148BA
S315080226A015F09EFA00281BDB53481CF02BFE4D48FA
S315080226B015F046FF002813DB50A028F041FF002141
S315080226C00A2004F0ECFB0021152002F075FA00211D
S315080226D03B48179A19F0B2FF4BA028F031FF03E0E6
S315080226E001464B4828F02CFF354C206810F0005F55
S315080226F017D1206820F440602060206840F400600A
S31508022700206044480068006830B101210023009126
S315080227101A46092109F07EFBBBF1000F18BF11F01A
S315080227202BF8206810F0005F20D0A06810F0010F87
S315080227301AD0052131EA00000CBF0120002060F3FF
S3150802274017480020FFF769FC2B481DF08AF918F094
S3150802275057FA194880F804A001F012FA00F060FD51
S315080227600020FFF760FC23E606F028FAB9F1000F0D
S315080227707FF41EAE19B0BDE8F08F00005898050820
S31508022780847F08080D0A54696E79434C5220284200
S3150802279075696C642025642E25642E25642E2564AD
S315080227A0290D0A0D0A0000005374617274696E6776
S315080227B02E2E2E0D0A00000018000010C008001068
S315080227C0801B0010CE0800105F0A0010F1090010E5
S315080227D0A8000010E20800102C0900107609001063
S315080227E0C0090010B41E00106C0A0010100A00106E
S315080227F0440A00108D0A00103822001052656164DE
S31508022800792E0D0A00000000446F6E652E0D0A002F
S315080228109A0A00109C00001030B583B004460021C5
S315080228206846FFF7D1FB0648016801EA0405016814
S31508022830A14301606846FFF7CCFB03B0284630BDCA
S315080228408400001010B582B0044600216846FFF7DE
S31508022850BBFB074A116841EA040010605168002967
S315080228601CBF906888476846FFF7B3FB02B010BDE5
S3150802287084000010002804BF012070472DE9F043A8
S3150802288089B00C68109E1F4688460546002C11BF63
S31508022890002A002009B0BDE8F08304F1B000C8F8A8
S315080228A00000A2F10109B0212046FDF7F6FE002F2D
S315080228B008BF2F462760287860606878A060688815
S315080228C0E060002E18BF306814D0C4F8980060681B
S315080228D01B2856D2DFE800F05517171717171717D0
S315080228E0171717171717171C3741414537555555E7
S315080228F055174F00294602A817F094FB0028A8BFCF
S315080229000398E4DBE1E7D5E90101C4E9040138E00B
S315080229106D688DB12846C4F8945000F090F9C4F851
S3150802292090007F2828BF7F2003462A46802104F18B
S31508022930100000F094FB24E00020C4F89400C4F8C8
S31508022940900020741DE0686800234A4641460096B6
S31508022950FFF790FF09B0BDE8F0836868C4F89800ED
S315080229600FE0E868C4F89C00E888C4F8A000A868E4
S31508022970C4F8A40005E06868C4F8A800A868C4F802
S31508022980AC0009B00120BDE8F08306F093BA012035
S31508022990704708F033BC10B5002304464022194696
S315080229A001F068FB002340228021204601F062FBE9
S315080229B0012084F8CE00D4F82815A07849688847FB
S315080229C0002010BD0FB410B503A9029800F078F8DC
S315080229D010BC5DF814FBFF2100F092B870B584B004
S315080229E00E4600240546214602A8FFF7EDFA002105
S315080229F0284604F054FA052006F092F8012E19D05A
S31508022A000021284602F040FC462006F089F80121FA
S31508022A10284604F044FA052006F082F802A8FFF7D1
S31508022A20E3FA002C18BF012402A8FFF7D2FA04B071
S31508022A30204670BD02200346002200901146284611
S31508022A4004F06AF8052006F06BF8284602F0F2FB55
S31508022A50C4B23720D9E706F055BAA0F1610119299F
S31508022A609CBF203880B2704708F070BC08F01EBDC3
S31508022A7010B50446D0F8280500698047032084F873
S31508022A80CE00002010BD0FB410B504AA039900F0B9
S31508022A90DFF810BC5DF814FB10F8012B412A02D3AB
S31508022AA05A2AD8BF203211F8013B412B02D35A2B9E
S31508022AB0D8BF20330AB19A42EED0D01A7047000026
S31508022AC0034603480A461946406900F0C1B80000A1
S31508022AD038000010094B03EBC0034FF0000032B177
S31508022AE01A5C0A54401CC0B20828F9D370470A5C1B
S31508022AF01A54401CC0B20828F9D37047B0760010A1
S31508022B002DE9F04100260D460746344605F0010137
S31508022B103846FFF763FFA0403043C6B2601C6D100B
S31508022B20C4B2082CF2D33046BDE8F08110B50C4683
S31508022B30FFF7E6FFA0420CBF0120002010BD0A28BD
S31508022B4034BF30303730C0B27047000010B582B09B
S31508022B50044600216846FFF737FA05490A6822EA59
S31508022B60040008606846FFF734FA02B010BD000098
S31508022B7084000010034A02600348801A001D086098
S31508022B807047000000000020F8FD022010B5AFF3E0
S31508022B900080BDE8104002A11F20FDF789BB000096
S31508022BA0000000000020704710B50446014605A043
S31508022BB02AF06BFE214607A02AF010FCBDE8104059
S31508022BC0FFF77CBB0C4552524F523A0D0A25730D3C
S31508022BD00A0000004552524F523A2025730D0A0048
S31508022BE00020704710B5042180F8CE10D0F82805C9
S31508022BF0C0688047002010BD07F06FB80FB410B543
S31508022C0005AB049A00F041FA10BC5DF814FB0028E3
S31508022C1019BF002A00290120704770B505461446D7
S31508022C200B46104600F00BF8401C83423CBF0120BD
S31508022C3070BD21462846FDF7A1FB002070BD01465E
S31508022C4011F8012B002AFBD1081A401E7047000012
S31508022C5070B51346ADF5007D04460A464FF4007179
S31508022C60684600F012FA04F47F410546B1F5407F42
S31508022C700FD006DCB1F5807F18BFB1F5007F1FD1F2
S31508022C8007E06E46B1F5A06F11D0B1F5C06F06D058
S31508022C9016E002466946204601F001FD10E00A48A0
S31508022CA0016869B1002070553046884708E000245B
S31508022CB0002D05DD305D03F053FB641CA542F9DCEB
S31508022CC00DF5007D284670BD10000010094B0A4A12
S31508022CD01968491C82FB01C24FEAA20CACEBE272EC
S31508022CE0524202EB820201EB4201044A196042F89F
S31508022CF0210070478405001067666666C87500106D
S31508022D0038B50446002104F0CAF84FF4167005F0E7
S31508022D1007FF02210B46002200911146204603F0C6
S31508022D20FBFE412005F0FCFE204602F083FAC4B2FF
S31508022D304FF4BA7005F0F4FE002C0CBF01200020F7
S31508022D4038BD0620704700000F4910B50A6812F40C
S31508022D50807F0FD10A6842F480720A600B4900220A
S31508022D60C1F80423CA624A6001228A60084ACA6014
S31508022D70084A0A6101F06DFE00220423114601F099
S31508022D807FFE012010BD00004438024000200140A9
S31508022D90922449009224491230B59FB00D46044642
S31508022DA000214348CDE900011AA8694616F0E6FB58
S31508022DB00EA9204602F0D8F9002871DB03A9284695
S31508022DC002F0D2F900286BDB9DF8100070B19DF86D
S31508022DD03E00002808BF4FF0224061D0002221465B
S31508022DE0684612F0FBFE002859DA59E02946684679
S31508022DF012F08AFF002853DB9DF83C0003A9A8B10C
S31508022E009DF8120028B968460C3112F02BFC0028EE
S31508022E1046DBBDF80200012818BFFDF757F9DDE9C0
S31508022E200001029AA260C4E9000138E09DF8000098
S31508022E30102808D1019830B10278122A04BF4078C6
S31508022E4010F0100F03D02078102822D112E0207833
S31508022E50102808D1606830B10278122A04BF407877
S31508022E6010F0100F15D068460C3112F0FBFB002843
S31508022E7016DB0EE0606860B10278122A04BF407859
S31508022E8010F0100F05D168460C3112F0B5FD002876
S31508022E9006DB6946204613F0FBF8002800DB002013
S31508022EA004461AA816F090FB1FB0204630BD000053
S31508022EB0100001007047000010B542694FF4B47360
S31508022EC0526892FBF3FC03FB1C220A4B83FB023279
S31508022ED0B2EBE27248BF3C32074B002903EB82028F
S31508022EE014BFB2F90210B2F9001014F09BF80020D0
S31508022EF010BD0000ABAAAA2A0405050800207047DF
S31508022F000020704708B50021112003F0C8FF0220EF
S31508022F1000900323024A01211B2003F0FDFD08BD90
S31508022F203140020870B5084E0024306800288CBF6C
S31508022F30064D70BD05EBC4004068006880473068DE
S31508022F40641CA042F6D870BD00050508A80A001040
S31508022F500020704740F28120704700207047002009
S31508022F60704700207047704706F0D8BE06F028BFA3
S31508022F702DE9F04190460D46060001D0072D01DBEA
S31508022F80FDF7A4F806EB8504206908B1E06B08B1E1
S31508022F90FDF79CF82369186800F1010CBCF1080FCB
S31508022FA008BF4FF0000C01219A68002A18BF0027B3
S31508022FB00AD02069A9408068C8F800007079FFF72E
S31508022FC01BFE3846BDE8F0815A68624508BF99601B
S31508022FD000EB001003EB800000F10C07C3F800C0F9
S31508022FE0E7E770B516460C46050001D0072C01DB4B
S31508022FF0FDF76CF805EB8404206900281ABFE06B1C
S315080230000028FDF763F8A6B100202169D1E900235B
S315080230109A4202BF8A68002A70BD5A1C082A08BF4B
S315080230200022C1E9012003EB031001EB80000C30FA
S3150802303070BD2069D0E900218A4207BF8268002A4A
S3150802304001EB011100EB810008BF0020EFD170BD32
S31508023050002812BF002901207047FDF7B3B90028DE
S3150802306019BF002A00290120704710B594465C1C36
S315080230700022A1423EBF0270012010BDC2541A4668
S315080230806146FDF731FB002010BDFDF7F7B870B5B4
S31508023090154606460C4602EB450028F06DFD311929
S315080230A0024600241346002DC8BF2D2612DD0878D5
S315080230B00009FFF744FD03F8010B087800F00F003A
S315080230C0FFF73DFD03F8010B491C641C03F8016B6D
S315080230D0A542ECDC002003F8010C104670BD10B5C1
S315080230E001F0ACFD012010BD1121016001207047DD
S315080230F02DE9FF4F4FF0000487B01F465FEA00092B
S315080231002646A046059412BF002F0BB0BDE8F08FE5
S31508023110404800680168002908BF0020A8B1056870
S3150802312029001ABF2A68002A0025C26ABA420AD1A9
S315080231304268002A18BF1160002918BF4A60046055
S3150802314044602BF01BFB2800E9D1DFF8CCB0002540
S31508023150DBF80000002888BFDFF8C0A016D95AF8A5
S31508023160350000281CBF826A002A0AD005A93846FB
S31508023170904730B10AEBC5005AF83560D0F804809A
S3150802318004E0DBF800006D1C8542E8D3002E04BF7C
S31508023190012005904FF0000A059800289CBF0BB045
S315080231A0BDE8F08F34202BF0EBFA050004BF0BB014
S315080231B0BDE8F08F2C606C60AC60EC602C616C61D1
S315080231C0AC61EC612C626C62AC62EC622C63301C02
S315080231D018BF0120CDF80080CDE903A0CDE901672B
S315080231E0DDE908234946284616F08EFC68B12B46C7
S315080231F000220121032000F08DFD05980AF1010A3B
S315080232008245CFD30BB0BDE8F08F28462BF0B6FA2D
S31508023210F3E700005C0D001000050508A80A001077
S3150802322000B583B013F0A8FA0DF08CFD00200190CA
S315080232300090694601A801F017FADDE9001002F0CC
S3150802324004FF00F0E3FA00F097FE01F06BFC01F0D0
S315080232501FF80020FEF7E7FE0FF07CF903F050FC9A
S315080232600FF0BCF9FFF75EFE16F088FBFFF74AFE81
S3150802327016F0CCFB04F0EEFD00F01EF804F036FB67
S3150802328000F015F801F002F801F0BCFF00F041FD6C
S3150802329000F0B4FF01F0E6F901F0CCFE01F03DFAC8
S315080232A000F007F803B05DF804EB03F00DBC05F077
S315080232B0A1BD4FF04A407047012070470A2824BF33
S315080232C0002070472DE9F0034649474B84250A5CDE
S315080232D0185C5E3303EB8203203153F804CC434B6C
S315080232E001EB820103EB820351F8041C53F8043CF8
S315080232F03F4E4FF0FF374FF00108B1F1804F1CBF28
S31508023300A1F18044B4F5806435D0A1F18044B4F5C6
S3150802331000641CBFA1F18044B4F540642BD0A1F12E
S315080233208044B4F5C0541FBFA1F18044B4F5E054FB
S31508023330A1F18044B4F500541DD02E4CD4F8009067
S3150802334019EA030F31D1D4F8009049EA030323603E
S315080233500D80BCFBF6F307EB43030B85A1F814803B
S31508023360A1F18043B3F580331CBFA1F18043B3F5C5
S3150802337082331AD113E0204CD4F8009019EA030FCD
S3150802338013D1D4F8009049EA030323600D80BCFBED
S31508023390F6F307EB43030B85A1F8148005E0B1F8B1
S315080233A0443043F40043A1F844300023022A18BFEC
S315080233B0052A01EB80020CBF53639386682310F03B
S315080233C0010F18BF4FF4D04301F1180210F0020F93
S315080233D018BF01F11C02108818431080BDE8F003DB
S315080233E0012070477C6C0508866C05081C6D05086B
S315080233F040420F004438024040380240002808BFC5
S31508023400704730B583B00D46044600216846FEF77C
S31508023410DBFD00222946204603F08AFF6846FEF7AE
S31508023420D8FD03B030BD000010B504460120FEF7F2
S3150802343079FF0220FEF776FF134850F82430DBB1F5
S3150802344024F0030000F1804000F59830D0F808080F
S31508023450A107090FC8400D4900F00F0051F82420B2
S31508023460810201F1804101F50031096944EA00103F
S31508023470E14001F0010198470220FEF73FFFBDE84F
S3150802348010400120FEF73ABFC40C0010040D0010CC
S315080234902DE9F04784B090460C4607004FF0000627
S315080234A038D03D7844F480300090D8F80000019076
S315080234B0D8F804000290A54208BF012623D0192C89
S315080234C012D0102C16D0DFF86CA005EB85095AF835
S315080234D0290010F4003F08BFFCF7F8FD0AEB890043
S315080234E04079042816D119E0102D04BF78680028FF
S315080234F005D106E00198002808BF192D01D000263B
S3150802350000E0012636B13C70D8F800007860D8F899
S315080235100400B86004B03046BDE8F08704EB8400C6
S315080235200AEB8000407904283CBF2C460126F1D2DA
S31508023530E9E70000F44B0508CA88012A05D190F884
S31508023540CE20022A03D0032A05D001F030B901227F
S31508023550034902F09BBC012200F1CC0102F096BCA1
S315080235600C05001090F8CE20022A18BF032A01D0B3
S3150802357001F01DB9D0F8D0200449002A14BF03224D
S3150802358001228A600122024902F080BC000500106D
S315080235900805001070B50A46224D89780446297036
S315080235A0012905D894F8CE00022807D0032813D09B
S315080235B02046BDE87040114601F0F9B869B384F8AF
S315080235C0CC10032084F8CE00204600F0CEFB20461D
S315080235D0BDE8704003F0E9BB91B194F8CC0088428B
S315080235E01BD00146204600F0B9FB297884F8CC1096
S315080235F0204600F0BAFB2046BDE8704003F0D5BB72
S31508023600022084F8CE0084F8CC10204600F0A6FBEF
S315080236102046BDE8704003F0C8BB2046BDE87040AE
S3150802362003F0C3BB0005001005F0B8BF30B4C0688C
S315080236300024002804BF30BC7047438803EB000C03
S315080236400378022B0BD003DC33B1012B07D003E03E
S31508023650032B09D0FF2B0FD030BC002070478B42BA
S3150802366004BF30BC704719E08B4217D1437895786E
S31508023670AB4213D130BC704703791578AB420DD1F2
S3150802368043795578AB4209D1C3885588AB4205D1EF
S3150802369003899588AB4204BF30BC7047002C08BF2B
S315080236A06046CAD030BC704705F098BF06F030B8FD
S315080236B010B501F0CEF90023BDE810401A461946A6
S315080236C001F0DEB940F674610160012070470FB45B
S315080236D010B505AB049A00F0A0F910BC5DF814FB0E
S315080236E068B1012811D0022815D0032818BF7047DF
S315080236F0422008604D2010604620186070471D2041
S3150802370008601E2010601F20F7E7052008600620C3
S3150802371010600720F1E72A2008602B2010602C2071
S31508023720EBE7000000487047007A030A0A21A0FB6B
S315080237300101704710B40A22A0FB023401FB0241C0
S315080237404FF0000C00FB0C1110BC18467047B0F97C
S315080237500000B1F90010401A704770470020704700
S315080237600A20704711F07F0C10B50CEBCC0100EB68
S3150802377081014FF0010481F8D54001F8D4CFCA601F
S315080237804FF00002C1E9043203D002F08EFB00209A
S3150802379010BD03F0F1F8FAE778B500240094134D4A
S315080237A0134E032005F082F9E86800690090641C4C
S315080237B0B44288BF78BD009810F0004FF1D0009946
S315080237C0002041F0010100910099EA681161E96857
S315080237D00A690092401CB04203D8009A12F0010FFF
S315080237E0F6D1BDE87840032005F060B9B85B001051
S315080237F0400D0300072214F0DFB9032214F0DCB9E6
S31508023800014805F006BC0000005B0010014805F0FF
S3150802381009BC0000005B001008B50B460092024680
S31508023820014805F023FC08BD005B001010B5012015
S31508023830FEF778FD0220FEF775FD0C48018821F097
S3150802384002010180FEF700FC094AD2E90032C01AD9
S3150802385071EB020028BF0DF029FA0220FEF74EFD91
S31508023860BDE810400120FEF749BD0000100C0040DB
S315080238702800001010B5044690F8CE00022818BF9A
S31508023880032804D02046BDE8104000F090BF4888BF
S31508023890012818BF10BD0020C4F8D000D4F82405AA
S315080238A08268204690472046BDE8104003F07DBA5C
S315080238B010B5044602234022812100F0DBFB0223D5
S315080238C040221946204600F0D5FB4023034A02212E
S315080238D0204603F0DEF8002010BD0000F86E001046
S315080238E030B504468888002804BFC888002816D13F
S315080238F0887800F07F0594F8CE0003280FD084F864
S31508023900CF502946204603F069FA204603F04DFABD
S31508023910002D0CBF0120022084F8CE0030BD2046BF
S31508023920BDE8304000F043BF10B504464888012878
S315080239300FD0022806BF888810F0FF0F10BD226933
S315080239405168000A062829D2DFE800F02810151A5D
S315080239501F240120C4F8D000D4F824058268204622
S3150802396090472046BDE8104003F01FBA21F07000C8
S3150802397000F1100112E021F0700000F120010DE0C3
S3150802398021F0700000F1300108E021F0700000F12A
S31508023990400103E021F0700000F150015160204619
S315080239A0BDE8104003F001BAF0B583B00C460546EF
S315080239B0174600216846FEF707FB0026002C18BFAB
S315080239C000240FD005EB8400016941B1C06B30B900
S315080239D00E604E608E602146284600F03DF8641C53
S315080239E0072CEFDB002F18BF00210DD005EB810352
S315080239F01A69002A1CBFD86B002802D016605660C6
S31508023A009660491C0729F1DB6846FEF7E2FA03B01D
S31508023A10F0BD05F0EBBE05F024BF70B50C460546B1
S31508023A2009680068FFF731FB012111EBE07208BF54
S31508023A30206829680023014429600B702168081A46
S31508023A402060104670BD0000002814BF00200148FF
S31508023A5070470000285B001000B528B100EB810012
S31508023A60016909B1C06B08B1002000BD40220349B3
S31508023A70022003F043FC012000BD0000F86E00108E
S31508023A80034A10B50021116004F0B0FA002010BDF7
S31508023A90C80400102DE9F041064615F0ADFF0400F2
S31508023AA014BF174DBDE8F081E06AB042204620D126
S31508023AB015F08CFF07460121204615F06DFF200000
S31508023AC018BF85420DD0D0E90021002918BF0A6027
S31508023AD0002A18BF516021466A68C1E900526C6023
S31508023AE01460234600220221032000F013F93C4603
S31508023AF002E015F06BFF0446002CD5D1BDE8F08133
S31508023B00600D00107047000010B50446042020809E
S31508023B10032060800120A0800020E080372309A2CC
S31508023B20382104F10800FFF79AFA1348D0F850042E
S31508023B3020643022114904F14400FCF78EFC01206E
S31508023B4010BD00004E65746475696E6F203320459A
S31508023B50746865726E6574202876342E332E322E7A
S31508023B60332920627920536563726574204C616239
S31508023B7073204C4C4300000000C0000854C40008DF
S31508023B8070B51E4D002455F8240018B18047641CF0
S31508023B90102CF8D300F058F800F032F801F036FB92
S31508023BA002F063FB00F0FEFD01F02EFB01F02EFD94
S31508023BB003F08AFA00F026F801F005FE02F0D5F8BD
S31508023BC003F006FA04F014F815F062FF0EF06EFD23
S31508023BD001F0ACFA01F06CFB02F0A6F801F038FF2E
S31508023BE00020FEF71AFA01F0F5F800F077FA12F05B
S31508023BF09FFDBDE870400DF035B800005C0B001063
S31508023C0005F01AB94FF04A40704780207047000005
S31508023C1000B587B00146684616F004FA00280EDB9E
S31508023C2003980849C07B00EB800051F820004FF446
S31508023C30C02131EA000002BF012007B000BD002002
S31508023C4007B000BDF44B05080120704740F2012079
S31508023C5070470020704700002749284B0A5C1B5C06
S31508023C602748203101EB820100EB820051F8041C3F
S31508023C7050F804CCFF2213F0010F18BF4FF47F420D
S31508023C8001F1180013F0020F18BF01F11C00038896
S31508023C9023EA02020280088B8A8B104324D1B1F1EF
S31508023CA0804F1CBFA1F18040B0F580601ED0A1F103
S31508023CB08040B0F500601CBFA1F18040B0F54060BD
S31508023CC014D0A1F18040B0F5C0501FBFA1F18040C9
S31508023CD0B0F5E050A1F18040B0F5005006D0094891
S31508023CE0016801EA0C010160012070470648016873
S31508023CF001EA0C010160F7E77C6C0508866C050889
S31508023D001C6D050844380240403802404FF40070E2
S31508023D10704770472DE9F0410F4E144682B032685B
S31508023D2098460F460546002A04BF02B0BDE8F08150
S31508023D3000216846FEF748F9220442EA052040EACD
S31508023D4007014246306803F0F3FA6846FEF741F97E
S31508023D5002B0BDE8F0810000C804001010B5D0F822
S31508023D60242552689047002010BD10B50446D0F8A5
S31508023D702405026820469047D4F8280580688047BB
S31508023D80002010BD13460A460146014805F07EB9D1
S31508023D90005B001010B582B0DDE9044CCDE9004C99
S31508023DA006F096FF02B010BD70B5054659B1D5F8B2
S31508023DB024054269002A38D095F8CE00032804BFA4
S31508023DC02846904731E095F8CD0005F1D40402283B
S31508023DD02BD1A169A068814207D9081AA06182B2CB
S31508023DE02846E16803F040FF1FE0E169B1FBF0F203
S31508023DF000FB121262B981420AD3206A814207D2B3
S31508023E0000221146284603F02FFF002020620CE00C
S31508023E10D5F82405C16829B195F8CE00032804BF50
S31508023E2028468847284603F0CAFC002070BD0000D1
S31508023E3000B50A7812F0700205D0102A13D100F0E4
S31508023E40B6FC022000BD4A78062AF8D00A2A02D011
S31508023E500B2A05D007E00122044902F017F802E00E
S31508023E60887803490861002000BD0000100500108B
S31508023E700005001030B515460C4600220221FFF750
S31508023E80D5FB002808BF30BD00F10D024188014468
S31508023E90206878B1904288BF81422DD92B68934217
S31508023EA028BF994228D94278052A04BF0278072AE8
S31508023EB022D10EE0002022602860206888421BD2A8
S31508023EC04378042B0ED0052B04BF0078072815D09B
S31508023ED00CE05A78042A01BF1A78092AC01D206004
S31508023EE00AD1EBE70278092A08BF28602068027817
S31508023EF0104420608842E3D3002030BD012030BD43
S31508023F0005F0D6BC10B4084CDDF804C0245C0C607D
S31508023F100649095C11600649095C19600549085C8D
S31508023F20CCF8000010BC7047C2570508BB570508F5
S31508023F30D0570508C957050800F47F4310B54FF056
S31508023F40000CC0B2B3F5807F06D0B3F5007F07D068
S31508023F50B3F5407F09D00CE0401EFEF71AFD02E0D9
S31508023F60401E04F029FE844603E0401EFEF738FE92
S31508023F708446604610BD0000034900200860486078
S31508023F800249086001207047E07900108400001099
S31508023F9001490968084070478400001010B50446B4
S31508023FA084B014A0FEF74BFE12A10022CDE900212F
S31508023FB0029001230322042120460CF003FA1A4830
S31508023FC0D0F8041100291CBF496900290AD08B8B35
S31508023FD0CA8B088C498C24F8403F6280A080E18015
S31508023FE004B010BD002324F8403F6380A380E38019
S31508023FF004B010BD4E65746475696E6F2033204532
S31508024000746865726E6574202876342E332E322EC5
S31508024010332920627920536563726574204C616284
S3150802402073204C4C43000000B41E00100020704759
S3150802403010B541B10B48FFF72DFDBDE8104001212F
S3150802404008480EF097BA0123074A084905480EF0B0
S31508024050A7FB0022BDE81040024B114604A0FFF759
S3150802406047B80000906E0010E401001030020010FC
S315080240705344000030B50C4611F0800F01F07F0C56
S315080240800CEBCC0100EB810114BFD43101F53C7174
S3150802409081F800C0E4094C708A60CB7018BFA1F899
S315080240A006C0022B04BF00220A7101F0DBFB0020C6
S315080240B030BDC068406900F001007047014805F04C
S315080240C031B80000005B001008B50B4600920246A4
S315080240D0014805F049F808BD005B0010014805F0E3
S315080240E00FB90000005B001010B5044651B1D4F8B0
S315080240F02405826942B394F8CE00032804BF2046F9
S31508024100904721E094F8CD1004F53C7003291BD1A1
S315080241108268816991420AD9891A81618A4298BF5D
S3150802412011468AB2C168204602F037FE0CE0D4F87E
S315080241302405016929B194F8CE00032804BF204654
S315080241408847204602F031FE002010BD10B504460D
S315080241500D480122FEF745FF98B103680021002B9E
S31508024160C8BF0A4A08DD00EB010C9CF804C002F835
S3150802417001C0491C8B42F6DC044A81212046FFF71E
S31508024180F1FA002010BD0000285B0010386F0010FD
S3150802419010B50446812100F020FB0221204600F0DA
S315080241A01CFB002010BD10B50446007994F86E1069
S315080241B0884208BF10BD052804D1012211462046AF
S315080241C0FFF7F2FB94F86E002071072812D2DFE897
S315080241D000F004090909090A09000020A4F88C005C
S315080241E0C4F8840010BD20460022BDE81040012113
S315080241F0FFF7DABBBDE81040FBF768BF012070473E
S315080242001A4810B5016841F00F010160016841F0D2
S315080242101001016016494FF028400860154A4FF40C
S315080242202070106082031448026000204860134B15
S315080242301860134B18608860DFF848C0C023CCF8B2
S315080242400030114B1A604FF0C842CA600CF10402E2
S3150802425089151160191D08600221082000F0EEFE7A
S315080242600021BDE81040112002F019BE3038024084
S315080242700000024000040240000802400404024012
S315080242800408024008040240080802400020704759
S3150802429001207047042070470048704740420F00CB
S315080242A000281CBF012070472DE9F04F85B08346D0
S315080242B000216846FDF788FEDFF88083DE4C01267A
S315080242C0DF48C8F80860E067072084F880004FF0E6
S315080242D00809402784F86F903046002504EB8001D0
S315080242E0CD632118401C81F833700728F6DBA8F83D
S315080242F00050029503AA02A920460395FFF7BAFDC4
S31508024300002818BFDFF83CA341D00298817801F053
S315080243107F00072880F28981039A9278032A00F29D
S31508024320848111F0800F1CBF04EB8001CE630299D1
S315080243308988082918BF102904D0202918BF4029BE
S3150802434040F07381221882F833108B2141430AEB1D
S315080243508102A2F50B7104EB80020D604D608D603F
S3150802436011610299C97801F00301012900F0568109
S31508024370400001FA00F0B8F8001003AA0843A8F8AA
S31508024380000002A92046FFF775FD0028BDD1B8F83E
S315080243900000002800F049814FF47A70FDF76CFEA0
S315080243A00021584600F07CFC0022A749432003F06E
S315080243B0C3F9012004F030F80A21092000F03EFE74
S315080243C00A210B2000F03AFE0A210C2000F036FEE4
S315080243D0022301220021092000F052FB02230122B6
S315080243E000210B2000F04CFB0223012200210C20A5
S315080243F000F046FB4FF4804004F02EF8802004F0CB
S3150802440013F84FF0805004F01FF8914C8F484FF084
S31508024410A041C4F824058F48C4F828058E48C4F874
S315080244202C05A670A780E67284F8009004206070B6
S315080244308815E080022020728848C4E9031000200B
S3150802444001EB401303F5106C04EB800203F53063AD
S31508024450C2F814C013656278401C9042F0D32278E1
S315080244600020002A0BD901EB003204EB800302F587
S315080244708052C3F88C202278401C8242F3D801F578
S315080244806060C4F8C80084F8CE6084F8CF506078BB
S315080244900021002810D901EBC10004EB800080F846
S315080244A0D56000F8D41FC180C570C0E902750561E0
S315080244B06078491C8842EED8002110F0FF0F13D00D
S315080244C001EBC10004EB800080F8F15280F8F0128B
S315080244D0A0F8F61280F8F352C0E9BE75C0F8005388
S315080244E06078491C8842EBD803F0C0FEE068C168D0
S315080244F041F0400141F08041C160FFF74DF9617A10
S315080245004FF45020002918BF4FF4E810E168886379
S31508024510142004F001FAD4F8C81028460D6021695F
S315080245200A6822F4C05242F003020A60E268802155
S315080245305162E26867F31F4061F30F00906200EB75
S315080245401042284662F30F0061F31F40E168C1F882
S31508024550040100EB104161F30F00E16865F31F40A7
S31508024560C1F8080100EB104161F30F00E168C1F8D8
S315080245700C011021364801F02DFD354801F00AFDDF
S31508024580206905612069456120694FF0FF37876117
S315080245902069C56161780020FF264FF0904C0029FA
S315080245A011D904EB80025369196811F0004F14BF40
S315080245B061462946196051690D6151698E606178B3
S315080245C0401C8142EDD8002011F0FF0F11D004EBF8
S315080245D08002136D196811F0004F14BF614629460F
S315080245E01960116D0D61116D8E606178401C8142F2
S315080245F0EDD82069016941F480710161E06885613D
S31508024600E0684761E16816488A698243104388610F
S3150802461003F098FDD4F82805006880476846FDF738
S31508024620D8FC05B00020BDE8F08F6846FDF7D1FC3E
S3150802463005B00120BDE8F08F285B00107C01001050
S31508024640F46D0010EC60001035780208340500108D
S31508024650B85B001060050010E40400100008005062
S3150802466010380C8001207047002202600A607047E9
S3150802467000F47F41C0B2B1F5807F0AD0B1F5007F60
S315080246800AD0B1F5407F1CBF00207047401EFEF7D6
S3150802469066BC401EFEF7E8B9401E04F017BB2DE9BA
S315080246A0F0471746884600F47F444FF0000964260F
S315080246B0C5B22CE0B4F5807F06D0B4F5007F09D0E8
S315080246C0B4F5407F0CD013E0681E3A464146FEF721
S315080246D0CDF90AE0681E3A46414604F0F9FA04E0C2
S315080246E0681E3A464146FEF73CFC002812DB0AD110
S315080246F04FF00000FDF787FC60B10021012220205F
S3150802470000F086FF03E032263F1A804481440FB147
S31508024710761ECFD24846BDE8F0874FF04A4070472A
S31508024720072814D2DFE800F013040713100A0D0055
S3150802473040F2011070474FF48170704740F203103F
S3150802474070474FF48270704740F20130704740F26A
S3150802475001207047B0F5827F04BF062070470EDC41
S31508024760A0F58070013804BF01207047012804BFF4
S3150802477002207047022804BF052070470AE0A0F508
S315080247800070013804BF03207047B0F5807F04BF6C
S3150802479004207047002070470020704700207047A9
S315080247A01AF0FABA7047012070470020704710B510
S315080247B00A78044612F0800F07D0802100F022F80A
S315080247C02046BDE8104002F029B9C988002914BF5D
S315080247D00021802100F016F8F2E70B4611F0800F4F
S315080247E001F07F0200B502EBC20100EB810114BFA2
S315080247F0D43101F53C710A70DA094A7002F02BF9D4
S31508024800002000BD00B50A4611F0800F01F07F03B3
S3150802481014BF03EBC30102EBC20100EB810114BF13
S31508024820D43101F53C714FF0010C81F802C00B70CE
S31508024830D2094A7001F042F8002000BD4B1E002939
S31508024840C8BF08490CDD10F801CB8CEA126C51F886
S315080248502CC08CEA0222B3F1000CA3F10103F2DCAC
S315080248601046704780530508704706F0B5BA38B542
S315080248700D4649880446080A012804D002280AD0A7
S31508024880032814D05AE0D4F82C15A0780A68694689
S315080248909047014642E0D4F82415A0788A6A694608
S315080248A09047014602204870C4F8301536E0C8B26F
S315080248B0062843D2DFE800F0030B131B232BD4F898
S315080248C02C15A0784A6869469047014626E0D4F82E
S315080248D02C15A0788A686946904701461EE0D4F8E6
S315080248E02C15A078CA6869469047014616E0D4F89E
S315080248F02C15A0780A696946904701460EE0D4F855
S315080249002C15A0784A6969469047014606E0D4F80C
S315080249102C15A0788A69694690470146BDF80000B9
S3150802492000281ABFEA88002A38BD824288BF024692
S31508024930ADF80020204601F0A9FA38BD29462046DE
S31508024940FFF735FF38BD000038B5054601EBC10053
S3150802495005EB80006A46B0F8040384B20E48FEF7F7
S3150802496007FBB8B1402CC8BF40240C4B021D0021DE
S31508024970002C06DD13F801CB491C02F801CB8C4248
S31508024980F8DC0460009828B94023044A0221284624
S3150802499002F07FF8002038BD285B0010F86E001080
S315080249A04FF0FF30704770B5064682B014460D4682
S315080249B018462BF039F9CDE9000122462946304638
S315080249C0FEF71CF902B070BD2DE9FF4F82468DB085
S315080249D0406917008B46C26BDDE91A6889B2DDF8B1
S315080249E07090104400EBC1054FF000042BD02988C3
S315080249F050460DF025FB1099FBF7A2FEF8B996B1C1
S31508024A002A465146684618F069FE7069816D08445F
S31508024A1000EB0802314606A818F068FE06A96846A1
S31508024A2013F014FD58B1BAF80C000BEB040141EA75
S31508024A300040C9F8000011B00120BDE8F08F641CDF
S31508024A400835BC42D3D30020C9F8000011B0BDE82E
S31508024A50F08F06282CBF4FF0FF302030704710B574
S31508024A60FA210160084601F071FC012010BD000020
S31508024A7090283ABF0149085C0020704783960508CA
S31508024A8038B58C460446902828BF38BD032B04BF88
S31508024A900221012221D0042B0CD09AB1012B0DD070
S31508024AA0022B0CBF022101214FF000020CBF032387
S31508024AB0012313E00321002213460FE002210022FC
S31508024AC001230BE0052B16D0062B0CBF0221002171
S31508024AD04FF0000208BF022300D00023CDF800C021
S31508024AE001F088F901B020460023BDE830401A4695
S31508024AF0194602F06FBA022100221346EEE70000B9
S31508024B00074A9023002908BF704703E012F801CB31
S31508024B1000F801CB491E28BFB3F10103F6D270474C
S31508024B208396050810B51420002100F095FB002095
S31508024B30184A014622F81010401C0928FADB1648C2
S31508024B40016000221549062002F0F6FD00221449EA
S31508024B50072002F0F1FD00221249082002F0ECFDBE
S31508024B6000221149092002F0E7FD00220F490A2016
S31508024B7002F0E2FD00220E49172002F0DDFD0022B6
S31508024B800C49282002F0D8FD4FF4804003F064FC5B
S31508024B90012010BDB00C0010003C0140715D0208F6
S31508024BA0815D0208915D0208A15D0208B15D0208F5
S31508024BB0C15D0208F1650208902824BF00207047EB
S31508024BC0F0B50F460446050900F00F00012101FA67
S31508024BD000F685B0002102A8FDF7F6F9154A32F863
S31508024BE015009FB1304205D002A8FDF7F2F905B0CB
S31508024BF00020F0BD304322F81500152C13D10023EE
S31508024C001A461946204602F0E5F90CE0B04322F8A6
S31508024C101500152C07D1002000900223064A01210F
S31508024C20204601F079FF02A8FDF7D3F905B0012065
S31508024C30F0BD0000B00C0010656D02084FF0E021CF
S31508024C404FF0FF30C1F88001C1F88401C1F888012C
S31508024C50C1F88002C1F88402C1F888020C480B49DF
S31508024C608160C160016141618161C16201638163E1
S31508024C70BFF35F8F084AC16306491160111F0860B6
S31508024C800648016841F4E02101607047AD22020836
S31508024C9000FE02200007FA050CED00E024ED00E014
S31508024CA0F0B51D4C83B00F462088002804BF03B018
S31508024CB0F0BD1A4D00216846FDF786F90026A1685F
S31508024CC00120E7B1002904BFA06001241ED105EB2B
S31508024CD08400016900291CBFC06B002806D0012286
S31508024CE021462846FEF77DF90028F8D1641C072CD0
S31508024CF0EDDB85F86E602846FFF755FA06E029B11E
S31508024D00A66085F86E002846FFF74DFA6846FDF755
S31508024D1060F903B00120F0BD7C010010285B001089
S31508024D20002818BF0729A4BF0020704730B583B0F2
S31508024D300C46054600216846FDF746F905EB840050
S31508024D40016900291CBFC06B002812D00F4810F851
S31508024D50140010F0010F12D0012221462846FEF750
S31508024D6040F90028F8D16846FDF733F903B0012067
S31508024D7030BD6846FDF72DF903B0002030BD224646
S31508024D802946002002F02AFDEDE70000F46D001026
S31508024D904FF0FF307047000070B504460D460B48C9
S31508024DA00CF010F8002C08BF70BD0848012308490A
S31508024DB02246836111F0EAFC4FF47A7005FB00F192
S31508024DC0BDE8704001480BF004BF0000E07900100E
S31508024DD0ED83020810B502480BF0F4FF012010BD5E
S31508024DE0E07900102DE9F04F87B05748DFF8509167
S31508024DF0CDF81090DFF84CA1046800260AF1600885
S31508024E00002C04BF07B0BDE8F08FD4E90210896808
S31508024E10884707463020039001A80290D4E9021079
S31508024E200DF1140B896806AD8847DDE902215B4658
S31508024E30009526F02AFC387810F0020F08D1D4E93A
S31508024E4002C040F60C12DCF80CC03E4B0199E04752
S31508024E50DFF8F8B0002558F82500B0F1FF3F03D077
S31508024E6010EB0B0F26D026E001F0FEF9387810F089
S31508024E70020F10D008EB850002F029F84FF0000C5B
S31508024E80CDF800C0D4E902160422D1F810C00146B2
S31508024E9004AB30460DE00AEB8500C0F860900020AE
S31508024EA00090D4E902C040F60C12DCF810C0254B7B
S31508024EB00199E04701266D1C002E3CD1322DCAD33A
S31508024EC00598B96900EB800001EB800501F0CCF981
S31508024ED0A86829F055FC06002DD0387810F0020F84
S31508024EE005D0AA6830460199FBF7B7FA07E0D4E974
S31508024EF002C00199DCF80CC0AA683346E047FF22D3
S31508024F00C82106F16000FBF79EFBC6F86090D4E95B
S31508024F1002200199526A904701F0A6F90020AA6870
S31508024F200090D4E902C00199DCF810C03346E04784
S31508024F30304629F023FC03F041FE07B0BDE8F08FA6
S31508024F40444C544200C0000864000010BCB3ABBD18
S31508024F5018484FF0FF310A0CC0E900120021C0E9D7
S31508024F6002111548016841F008010160134904203D
S31508024F70088000200A1D1080121D1080104B022284
S31508024F801A80104A1080121D10800F4B53221A8065
S31508024F900E4A1060401E1A1D10600D4A012010802C
S31508024FA0088840F00100088000220A49322002F0EF
S31508024FB0C3BB00002800001040380240000C004025
S31508024FC00C0C0040180C0040280C0040340C004021
S31508024FD0140C00402D38020830B583B004460D463D
S31508024FE000216846FCF7F0FF0948C0E90045094870
S31508024FF00460FDF729F8001B71EB050002D3064988
S31508025000022008806846FCF7E4FF03B030BD0000C2
S3150802501028000010340C0040140C004001490860B6
S3150802502000207047C8040010002070474FF0FF3078
S31508025030704770474FF07740704700004207D20E1C
S315080250400F23934001F00F019140DFF820C00209B7
S315080250500CEB82224FF0010C0CEAD00002EB800026
S31508025060026A9A4311430162704700000000024037
S31508025070002808BF704710B44FF0000C81F800C032
S3150802508003234B700478022354B1CC545B1CDBB265
S3150802509001F803C05B1C10F8014FDBB2002CF4D1F7
S315080250A013800B7010BC704730B40A7800EB82028A
S315080250B0D2F850C0DCF80050DCF810300C698A6867
S315080250C0ACB11444641EB4FBF2F464F3DC43C3F3D8
S315080250D0C944624362F31203CCF81030097845F0EA
S315080250E0044200EB8100006D026030BC704762F337
S315080250F012036FF3DC4303F50023EDE70020704744
S3150802510013460A460146014804F004B9005B00103A
S315080251100146014804F028B9005B0010014804F072
S31508025120A5B90000005B001005F086BE05F098BE22
S3150802513005F0ACBE0FB40A4608B505A900910146AA
S315080251400348049B03F0F7FF01B05DF814FB000067
S31508025150005B001000B583B0DDE9043CCDE9003CF4
S31508025160FDF74CFD03B000BD2DE9F04105000C46E4
S3150802517003D02878142808BF6D6800270126256001
S315080251809DB12878102804BF686800280DD02946E2
S3150802519004F1080014F046FF0028B8BFBDE8F08104
S315080251A02771287810280BD103E0267167718E7152
S315080251B022E06868407810F0100F18BF012000D16D
S315080251C000206071A16801F06002202A18BF402AF7
S315080251D006D001F01F0101291CBF0829102901D098
S315080251E0A67109E030B90649E068896B884218BF9A
S315080251F0002000D10120A0710020BDE8F081000046
S31508025200401D00100120704701207047002070479A
S3150802521070470000054810B50068FEF787FA42F2A3
S3150802522010720023FAF756FF10BD00002000001086
S3150802523090207047902824BF002070470109054A2C
S3150802524002EB8121096900F00F0021FA00F000F053
S3150802525001007047000002400022134610B5121AD8
S3150802526073EB01020BDA42F21072821A71F1000133
S3150802527005DA01F05CFC03490860012010BD002034
S3150802528010BD000020000010902828BF70470209B0
S3150802529000F00F00054B03EB8222012303FA00F00C
S315080252A080B200290CBF5083108370470000024069
S315080252B07047000070B50446006A2B4984B051F85D
S315080252C02050288910F0800FFBD1E069002818BF0A
S315080252D0FCF7EDFE606800280CBF0121002120685A
S315080252E0FFF7D2FFA0680126002818BF022603ABE3
S315080252F002AA01A9206AFEF7F3F900231A461946FB
S315080253000096019801F008FC002301261A46194660
S315080253100096029801F000FC00231A4619460096E8
S31508025320039801F0F9FB00202880206A002808BFAC
S315080253304FF4804015D0012808BF4FF480500BD097
S31508025340022808BF4FF400400BD0032817BF0020DD
S315080253504FF4005004B070BD03F098F804B0012071
S3150802536070BD03F08BF8F9E7740000100728B2BF86
S31508025370032A002070472DE9F04F89B09946DDE9E6
S3150802538012A790468B460546072B08DB03D1B8F1D0
S31508025390000F0CD103E0B9F1090F05D007DD09B0FA
S315080253A04FF00000BDE8F08FB8F1000FF7D10021E9
S315080253B002A8FCF709FE7C4804AB06AA50F8254069
S315080253C07A4808A9465D2330805D019005A80090B9
S315080253D02846FEF797FD17F0040F1FBF0498FF280B
S315080253E00199FFF72BFE17F0020F1FBF0598FF283A
S315080253F00199FFF723FE0120A4F18041B1F5883116
S315080254001CBFA4F18041B1F58A317DD004F56F3114
S3150802541000EB912066490A684FF4803303FA00F0DC
S3150802542010430860634800EB6B00B0FBFBF0208179
S315080254300C20B9F1090F08BF41F20C00B8F1000FB0
S315080254400BD040F48060B9F1080F08BF40F48050D1
S31508025450B8F1010F08BF40F40070A081BAF1010F3C
S3150802546008BF4FF0000A4FF6FF7000EA0A302082A2
S31508025470002017F0040F1EBF0499FF294FF400708D
S3150802548017F0020F1EBF0599FF2940F48070A0820B
S315080254900022052311460898FFF7F2FA019908989F
S315080254A0FFF7CCFD01231A4600210698FFF7E8FA12
S315080254B001990698FFF7C2FD17F0040F0BD004985E
S315080254C0FF2839D0002205231146FFF7D9FA019998
S315080254D00498FFF7B3FD17F0020F0BD00598FF28C3
S315080254E02AD001231A460021FFF7CAFA019905981C
S315080254F0FFF7A4FD0021284600F066FB2E4815B3E7
S31508025500012D27D0022D00E009E028D0032D37D03F
